:030000000209935F
:0C099300787FE4F6D8FD7581150208F6A7
:0E09850057656C636F6D6520616C6C212100FD
:070927001209697F0A7E003E
:10092E00E4FDFCC3ED9FEC9E5015E4FBFA0BBB00FF
:0F093E00010ABA04F8BBFBF50DBD00010C80E403
:01094D002287
:0E0969008FA0C2B0C2B1D2B212092AC2B2220D
:0E0977008FA0D2B0C2B1D2B212092AC2B222EF
:10094E007F381209277F0F1209277F011209277F8F
:0B095E00811209697F0A7E0002092E49
:1008F60078087C007D007BFF7A0979857E007F0E73
:100906001208D090000012094EAF8274082FF8E644
:10091600FF600D120977A37F327E0012092E80E94F
:0109260022AE
:10080000E709F608DFFA8046E709F208DFFA803EDA
:1008100088828C83E709F0A3DFFA8032E309F608C7
:10082000DFFA8078E309F208DFFA807088828C832F
:10083000E309F0A3DFFA806489828A83E0A3F608E3
:10084000DFFA805889828A83E0A3F208DFFA804CBD
:1008500080D280FA80C680D4806980F28033801094
:1008600080A680EA809A80A880DA80E280CA8033FD
:1008700089828A83ECFAE493A3C8C582C8CCC58375
:10088000CCF0A3C8C582C8CCC583CCDFE9DEE78045
:100890000D89828A83E493A3F608DFF9ECFAA9F0C4
:1008A000EDFB2289828A83ECFAE0A3C8C582C8CC1A
:1008B000C583CCF0A3C8C582C8CCC583CCDFEADE33
:1008C000E880DB89828A83E493A3F208DFF980CC95
:1008D00088F0EF60010E4E60C388F0ED2402B4048E
:1008E0000050B9F582EB2402B4040050AF23234535
:0608F00082239008507302
:00000001FF
